:020000040000FA
:10000000004000202D810100698101006B81010009
:1000100000000000000000000000000000000000E0
:100020000000000000000000000000006D810100E1
:1000300000000000000000006F81010071810100DC
:100040007381010091850000998201007381010094
:1000500073810100000000007381010073810100C1
:100060005DA60000F583010073810100738101002A
:1000700073810100738101007381010073810100AC
:10008000738101007381010073810100738101009C
:1000900073810100C17D01009D7D010099A70000D1
:1000A000A9A700007381010000000000000000000B
:1000B0000000000000000000000000000000000040
:1000C00010B5064C2378002B07D1054B002B02D02E
:1000D000044800E000BF0123237010BD800200200F
:1000E000000000001C780300044B10B5002B03D067
:1000F0000349044800E000BF10BDC04600000000F6
:10010000840200201C780300164B002B00D1144BF6
:100110009D46402292029A1A924600218B460F4633
:100120001348144A121A27F02FFE0F4B002B00D051
:1001300098470E4B002B00D0984700200021040068
:100140000D000D48002802D00C4800E000BF1EF052
:100150000DFF2000290027F0FEFA1EF053FEC046D6
:100160000000080000400020000000000000000027
:1001700078020020D42F00200000000000000000C2
:10018000044B054A98331B6804481A60044A9A8055
:100190007047C046742E002078000400988A020040
:1001A00004040000084A10B5130098331B689979BD
:1001B000002908D0916C0029F9D0002199711B69A0
:1001C000587912F0FDF810BD742E002013B5084CBC
:1001D00098342368188824F076FA236800905888A9
:1001E00024F071FA69460190022006F0E9FA16BD82
:1001F000742E002010B50D4C002803D0086815F0AF
:1002000009FD04000A49200001F01AFA6079002172
:1002100012F0D6F8200001F0FDF90022054B064847
:1002200098331B681A619A7110BDC04698DD0200B0
:1002300064890200742E0020988A02001FB50C4BBE
:1002400002AC00930194022310F0E8F9029A002A0C
:1002500003D0084B98331B685A806268002A03D089
:10026000044B98331B681A80034804B010BDC04685
:10027000DC840200742E0020988A0200F0B5254B21
:1002800089B004AC00930194042310F0C7F9224F05
:10029000224A3B0098331B6804989A80204B034005
:1002A000062B06D0830730D102681E4B92699A4212
:1002B0002BD1012303940293002598373B681869DA
:1002C00001F0A8F93B6860681D6115F0A3FC1649B0
:1002D000060001F0B5F93B68144A9D711268029955
:1002E0009A60227B9981DA71DD81039A012900D11C
:1002F00012685A6101221E619A71237A002B01D083
:10030000FFF750FF0A4809B0F0BD03AA02A909F09F
:100310009DFBD1E79C840200742E002004040000A1
:10032000070080FFE53F010064890200702E002075
:10033000988A0200F0B5274B89B004AD019500936F
:10034000042310F06BF96B68A868049E039315F002
:1003500061FC214F040098373B68186901F05AF995
:1003600000223B681D491A61200001F069F960799B
:1003700080212D7B12F024F8002E1CD1607912F020
:100380009FF8039B002B13DB0022134B1449983377
:100390001B6803989A710968DA714118DA605A612A
:1003A000023299601C619A71002D01D0FFF7FAFEAC
:1003B0000C4809B0F0BD31000B4818F0DDFC11F01D
:1003C000DBFF0028DDD0607912F07AF807480BF0E7
:1003D000F7F8C046BC840200742E00206489020035
:1003E000702E0020988A020040420F0012EC02009A
:1003F00010B5182021F0F0FF064B98331860064B1B
:100400000360064B838000238371036143610448CA
:1004100010BDC046742E00207800040004040000C3
:10042000988A0200F0B56D4C87B026009836336884
:10043000002B40D09A79002A3DD0694D99682A68EE
:10044000914238D89A79022A0BD11B690021587938
:1004500011F0B6FF2B6832680A3393600123937161
:1004600029E09A79012A26D19A89D989914204D31F
:10047000DD79002D19D00021D9815869012A02D0D7
:10048000DA8992001058574A904216D11B69002110
:100490005879983411F094FF24685348218818F053
:1004A000F5FC0123A060A37105E09D71186901F0BE
:1004B000B1F833681D6107B0F0BD05A913F0C4FAA7
:1004C0009834236801901B69802158790293059E16
:1004D00011F076FF019B24681F781F232188424872
:1004E0001F4018F0D3FC618818F0D0FC7D1EEDB2DF
:1004F0000390012E5AD9019B5B78232B4DD0622BA0
:1005000050D1002D4BD0023FFDB26A1E53425A41DA
:100510005242022E4ED0012102230198C05C3A289B
:1005200003D00F27384020710133207984469E4242
:100530000ED90198C05C3A280AD1581C864207D9C6
:10054000019F0233385C0F2738409E4235D86071D6
:10055000092D3DD86346043B9A1852B26F00234BD5
:10056000002900D1224BD85B002A2EDB104111F06C
:1005700003FF1A4B039998331A68537959430B00B8
:1005800017490A3B09680A2B00DA0A235B189360B3
:10059000D3890133D381022361E70022B9E72A001E
:1005A0000625B6E7002101230A00B6E70021012352
:1005B0000A00BAE733000121B7E70A267043019E1B
:1005C0006071F65C3E408019C1E752429040CEE730
:1005D000029B0021587911F0F3FECAE7742E002027
:1005E000702E0020988A020060EA0000E2E6020015
:1005F000D4E602000523020070B5094C094D2068BD
:10060000434309489B189B0018582B682260C01868
:100610000F2319400901286006F0D6FA70BDC046C4
:100620009C020020C002002034850200A83903008B
:1006300000B5080006292ED818F08AFB040A101607
:100640001B2128009A18E223DB00D218107800BD85
:10065000C4329200D05C8006800EF8E7C43292006B
:10066000D05AC004400EF2E7C4329200D0580003C2
:10067000F8E7C43292009A1890780009E7E7C4328C
:1006800092009A18D0780007000FE0E7C432920079
:100690009A18D078F1E7024B024A00201A60D6E798
:1006A0000400002020EC0200A83910B50400080066
:1006B000062949D818F04CFB040A141F2A343F00BD
:1006C000E221A218C9005218137010BD3F210B403F
:1006D0001800C4329200135D8B4303431355F4E7B3
:1006E0007F21C432920019401948135B89010340ED
:1006F0000B431353E9E77F21C4329200194010598C
:10070000144B490303400B431351DEE70F20C4325F
:100710009200A2181901937803400B439370D4E719
:100720000F210B401800C4329200A218D3788B43DB
:100730000343D370C9E70F20C4329200A218D178C6
:100740001B0101400B43F4E7034B044A1A60BCE76A
:100750003FE0FFFFFF1FF0FF040000203EEC02001F
:10076000F0B5D2B285B00E000293072113000B4002
:10077000013BDBB2042B02D9294C2A4D25608A4368
:100780001F02002A24D1284B3578C45C274B24094A
:10079000E443E4B22D1BDB19EDB203930827631980
:1007A000039ADBB2D35C5A00D2B25BB20192002B47
:1007B00033DA1A210320013FFFB2FFF71BFF019B31
:1007C000002FF0D10134E4B2002CE7D135701AE0EB
:1007D000D4431749E4B2CE5C0825144B1B19DB5DEA
:1007E0005A00D2B25BB20192002B0FDA052102202F
:1007F000FFF700FF013DEDB2019B002DF0D1013468
:10080000E4B2002CE8D1029805B0F0BD310001201F
:10081000FFF7F0FE002EE9D0ECE706210420CAE73E
:10082000040000202BEC020019070000B6F10200C2
:1008300011F802000022F0B505000F00FF200F2480
:100840008BB008AB654EDA710100C43189006918BC
:100850008B781A09B25C234012011343CA788B705B
:1008600013071B0FF35CA243234013431A09B25C26
:10087000234012011343CB700138E5D2E223DB00A1
:10088000EE5CB308F31ADBB20493554B1B68002BE4
:100890000BD0E222C4218120D200890000013B005C
:1008A000AA186918281803F08FFA00244823029424
:1008B00003930194009481222B1912019B181B7839
:1008C000180005930723984320D008A92300059A10
:1008D00007312800FFF744FF0230C4B2023FFFB2E5
:1008E000002F78D02B780393013EF6B2002E47D12B
:1008F000E2222B19D2009B181E78B308F31ADBB240
:1009000004930023029301930093D4E7354B009A9C
:100910009C469A5C2300C4339B00EB189978090924
:100920000A4331498A5C019907926246DB78525C3E
:100930001907090F0A432C491B098A5C2B490692A7
:10094000029A8A5C06991343079A8A182649C95C59
:1009500001238918FF2A00DC031CC9188823090613
:100960001B06C918090F0020FFF744FE039B013B3B
:10097000DBB20393002BB7D10134E4B2013FAEE701
:10098000049B013BDBB20493002B02D1059B002B9F
:1009900018D12200C4329200535D00999B069B0E31
:1009A000CB18DBB20093535B0199DB045B0ECB18D1
:1009B000DBB201935359029A1B035B0ED318DBB2CF
:1009C000029378E708A92300059A07312800FFF76A
:1009D000C7FE04008CE70BB0F0BDC0463AED020044
:1009E0006803002006F7020012EF0200B6F00200D2
:1009F000064B1B5C002B05D0054B185C4843C0110F
:100A0000C0B27047034B185CFBE7C04662F00200BF
:100A1000DBEE02009BED0200064B1B5C002B05D0B9
:100A2000054B185C4843C011C0B27047034B185CBB
:100A3000FBE7C04662F0020016F80200EBED020090
:100A4000F0B5037A8DB004007F2B00D158E103008C
:100A5000070000250933FF330837099301953E78D5
:100A60007F2E00D087E000230693019306998B0028
:100A7000E31803931A7A481C1B7BC0B206907F2BA5
:100A800000D11CE19F49CE5C8D5C9F49AE4200D0F5
:100A9000F2E08D5CCB5C0493039B597A019B59185F
:100AA000CBB20193049BEB18DBB20793023B1B060E
:100AB000DCD4A827019B5D1BEBB20593A82F00D0C7
:100AC000E2E0039B039A5B7A527B5B085208991819
:100AD0000291019901988A18E221C31AD2B2DBB2BD
:100AE000C900A218E31852185B18157818782D1A47
:100AF000EDB27F222B006DB293430893EB17E818F9
:100B00005840029918F0A8FA2800CBB2029909932C
:100B100018F0BCF9059A00251600C3B20A93029B8F
:100B20009B18DBB20B93320039002000FFF77EFDEB
:100B30000A9B01360B9AC018F6B2C3B2964200D196
:100B4000B7E0099AAD18029AEDB2AA420DD8AD1AD3
:100B500020216A4652181278EDB252B2002A00DA09
:100B6000A5E0002B01D00133DBB2320039002000B8
:100B7000FFF79AFDD7E7012E78D12B003100019ABB
:100B800020001FF019F9BA78604BA1789B185B78A8
:100B900030000193FB780893FFF72AFF3F23E178A9
:100BA000034030000293FFF737FF7F22584B9B5DD5
:100BB0001A40584B03929A5D0F231A400492564AEA
:100BC000925D1A400592554A925D1A4006923F2264
:100BD000534B9B5D07937B78EB18DBB20A93029B28
:100BE000134002937F23184083019C462A003F2133
:100BF000C4329200135D0F268B4302990B431355A9
:100C0000135B48490B4061460B431353039B105938
:100C10005903454B03400B430498190C3140000124
:100C200013510843A21890701B0E0598B343069900
:100C3000034309011E400E43D670694681226319A1
:100C4000097F12019A181170E222D2009B180899AC
:100C5000019A013552181A700A9BEDB29D42C5D116
:100C6000099B0437BB4200D0F9E6FCE6022E8AD18C
:100C70002B00019AFF2183E72C48AE4201D9C55CC5
:100C800008E78D5C835C06E7049B019A39009A189B
:100C9000D2B22000FFF7CAFC059A050039002000F7
:100CA000FFF7C4FC079B2D1AEDB2029321E7013B2D
:100CB0005AE70137FFB2AF2F00D0FFE6D6E6023188
:100CC00089006118019B497859186368C9B2002BE3
:100CD00013D1E22381221648DB001201E318A51884
:100CE000001B1A18C4329200125D1E789206D20EB2
:100CF000B21A1A7001339D42F3D12000FFF79AFD1A
:100D00000DB0F0BD4BED020012F0020006F802003B
:100D10003BEE02004AEC02009AEC0200EAEC020010
:100D2000B6F602003FE0FFFFFF1FF0FF8BEE020070
:100D3000F0F8FFFFF7B505002C200E001700019317
:100D400021F05CFB0400057086608781072D01D0CF
:100D5000012D10D1337872780A3B1B021343E381D3
:100D60006B461B79202063750423638421F034FBD8
:100D7000A0622000FEBD014B5B5DF0E74DF8020074
:100D8000F8B5214E3568696801292DD9AA684B1E2E
:100D9000D05C0A2828D1002B01DC1C0009E0581E79
:100DA000145C0A2CF9D00300F5E7105D202802D16D
:100DB0000134A142F9D8002B0BDD601C814208D11F
:100DC000581E002805D00138175C0A2F0CD0202FA0
:100DD000F7D05218023AE31A14789B083A3C624260
:100DE00054411C19002C00D1F8BD084F04223900D1
:100DF000280023F003FE0421380006F0E7F83369E9
:100E0000013C04333361EDE7A0020020BB13030073
:100E100010B520220021024826F0B6FF10BDC046C2
:100E2000D42E0020084B10B542681860002098604E
:100E300018750138D86008005A601A61996121F06C
:100E400002F9FFF79DFF10BDA0020020F8B503785E
:100E50000400002B1ED0104D286E002804D0210065
:100E600026F0AEFF002815D0200026F0B3FF471C67
:100E7000380021F0BEFA061E0CD03A00210026F000
:100E800067FF2A00054B5C321968043B9960934266
:100E9000FAD12E66F8BDC046742E0020EC2E00203C
:100EA000F0B5B84C02002068A568436885B001938E
:100EB000002D00D0FDE0531E042B11D8636801996A
:100EC0008B4200D195E0012A00D12AE1022A07D104
:100ED00023696268934200D94FE10122524288E0BF
:100EE000032A00D185E0042A00D12FE1052A00D190
:100EF00007E1062A0ED12369019A9342AD416D4262
:100F0000002DEADD2368290098682369C01806F0DF
:100F10005DF81FE00B2A21D1019B2269991A23F069
:100F20002DFE2368019A5B68934204D21300226964
:100F3000981A06F081F82268236951689068C91AE6
:100F4000C01806F043F8236858682369C01A401B8C
:100F500006F060F823695D192561BEE70E2A13D1FA
:100F6000E368002BB9DB013BE3606268019B991ADF
:100F700023F004FEE368002B18DB1633824A9B0043
:100F8000D318996820680FE0102A16D1E368062B61
:100F9000A3DC5D1C7C4A17339B00D3189968002999
:100FA0009BD06368E560436023F0ADFD6368226910
:100FB000D61A22685568ED1A0AE0152A0CD1236961
:100FC000626861689A1A23F0E1FD236962689E1ADB
:100FD0000127002E2FDCA4E70D2A0DD16B4821F04C
:100FE00032F8206823F074FD6368C018FFF72EFF05
:100FF0000022100005B0F0BD01231B2A62D0082A90
:1010000001D07F2A20D121696268914200D864E72B
:1010100000238668B618F75C202F13D101339F1880
:10102000B942F8D80426032B00DC033E891B3200AA
:1010300023F0ACFD0127300005F0ECFF23699E1B77
:10104000266178E00126F1E7092A28D16368226940
:101050008068D11AC0184E4A03AB0CF05FFE061E22
:1010600000D13AE70027431C0BD1A06920F0EBFF29
:1010700063682269D11A22689068C01805F0A6FF3B
:101080004FE723692068F918039B01375A1C039224
:101090001A7823F061FDBE42F3D1350041E7130019
:1010A000203B5E2B00D918E7216923F05EFD012566
:1010B00037E7012D08D104234F2A03D002235B2AEE
:1010C00000D00023A36008E7022D20D11300303B9D
:1010D000092B03D803232275A360FEE60023A36037
:1010E000412A00D152E7422A00D139E7432A00D1F0
:1010F00001E7442A00D1EBE6482A12D0462A00D064
:10110000EBE60027019B22693E009D1A0EE00021BC
:10111000032D29D17E2A24D1237D312B01D0372BD9
:101120000DD100252F00236962689E1A0023A36059
:101130009E4200DD7FE7002F00D1E1E6F1E61A00D4
:10114000FB25343A2A42DCD0332B0AD12169019B9A
:10115000994206D2012223F019FD002501272E0015
:10116000E4E700252F00FAE7042D04D1462AC8D071
:10117000482AD6D0A5E7A160AFE6002501262F00BA
:1011800059E7C046A0020020742E0020DE110300A3
:10119000A0C5020030B507240278084DA243140010
:1011A0000222224302707F22039C41602240D4002D
:1011B000028883602A402243028030BD07FCFFFF83
:1011C00010B50B00072401782340A14319437F2366
:1011D000017004990A4C0B40D900038842602340F7
:1011E0000B430380039B04685905064BC90A23403F
:1011F0000B430360029B8360059BC36010BDC04628
:1012000007FCFFFFFF03E0FFC3790248002B00D17A
:1012100001487047A8C90200A0C9020010B500F03B
:1012200051FB014810BDC046988A020010B50868FD
:1012300000F048FB004810BD988A020073B50D000D
:10124000022836D1012601A9686812F0FDFB76421A
:101250003400019BC318834212D101A9286812F0FF
:10126000F3FB7342734162426241DBB2D2B2019935
:1012700000F06CFC002820D11049114822F0A4F89D
:101280000278722A01D0772A06D1611C0ED1723AF7
:10129000544254410130DEE7622A01D0742A05D15C
:1012A000711C03D1743A56425641F3E705480AF0DF
:1012B00087F9012676423400CFE776BD61F8020057
:1012C0001CB0020054F80200F7B501911149040066
:1012D0001700002523F048FA7B68AB4204D80E497A
:1012E000200023F041FAF7BD002D03D00B49200068
:1012F00023F03AFA019BAE009A5909492000BE1921
:1013000023F0F3FA0122B168200008F02DFA01352C
:10131000E2E7C046E0160300AC1A030070F80200D2
:1013200073F8020010B524F0C4FC014810BDC0469B
:10133000988A020010B5C30708D483070ED103684A
:10134000094A934202D0094A934207D108F0DCFAD5
:10135000002801DD20F084FE054810BD08F038FBB0
:1013600018F070FEF4E7C0465CDA0200B0C9020073
:10137000988A020001220B4B10B51A600A4A516884
:101380000029FCD000215160A1220131D2009A58DD
:1013900059600323D01718408018801023F093F968
:1013A00010BDC04600C00040FCC0004010B5002881
:1013B00004D1044814F054FC034810BD086808F038
:1013C000A3FAF7E7E7030000988A020070B50D0062
:1013D00008F0FEFA041C280008F0FAFA211C18F0A4
:1013E00057FC051C1EF0EAFD011C281C18F01EFB12
:1013F000211C17F0A9FF0323020002209A43024B8D
:101400001043C01870BDC0460000808010B51EF0AB
:10141000D5FD0323020002209A43024B1043C0185B
:1014200010BDC0460000808010B5074C002802D0D7
:101430000868A04203D114F0F1FC200010BD08F0B0
:101440008FFA14F00BFDF8E7988A020010B504003B
:1014500008F0CCFB08F058FA002803DC002106480D
:1014600021F0B2FF14F0B4FC23F02DF904220100A6
:10147000200008F0D1FB10BD78AE020010B50C00C2
:1014800023F05EF9631E184207D0020023000349CF
:10149000034808F09BF809F033F810BD77F8020014
:1014A000FCB1020010B54A680249D20023F01DFACF
:1014B00010BDC0469FF8020070B50B000600140076
:1014C000101E0FD071681800042A0ED1FFF7D6FF46
:1014D0007368012B03D0022B05D0006800E0007870
:1014E00023F0F1F870BD0088FAE7FFF7C7FF0500A9
:1014F000200008F035FA726803000548012A03D07D
:10150000022A03D02B60EDE72B70EBE72B80E9E795
:10151000988A020070B506000D00002814DD00292D
:1015200007DD154817F0B2FC0124B04209DB0024A6
:1015300007E00100C020000617F0A8FC0124A84223
:10154000F5DDE4B2200070BD002907DDC0200006F3
:1015500017F09CFC0124B042F3DCE8E70024A04231
:10156000F0D00100044817F091FC0123A84200DCF0
:10157000231CDCB2E6E7C046FFFFFF3F014BD8600B
:101580007047C046742E0020034B82B0D86801AB70
:10159000C01A02B07047C046742E0020014B18617B
:1015A0007047C046742E002010B54E21024821F02D
:1015B0002DFD08F0A5FFC04694B0020007B5054A0E
:1015C00001ABD1681269CB1A9A4201D8FFF7ECFF40
:1015D00007BDC046742E00200379044AD35C002B5B
:1015E00000D183790248DB00C0187047DA2D002053
:1015F0003489020010B50400FFF7EEFF227903687A
:101600000249034807F0E2FF08F07AFFAFF8020052
:10161000FCB10200002803D001210379014AD15412
:101620007047C046DA2D002010B5FFF7D5FF034BF9
:101630004068C01A431E9841C0B210BDF5150000A5
:1016400070B505000C00FFF7C7FF0023A04209D0CA
:10165000436828009847044A2B79A41A034AE410E7
:10166000D4540123180070BD34890200DA2D002003
:1016700010B5040008001EF050FD0300002C03D03C
:10168000012C06D0002003E00348002B00DC0348B7
:1016900010BD40002043FBE7A8C90200A0C902001A
:1016A00043684B6083688B60C3680800CB60014B64
:1016B0000B607047D089020030B5040087B00D0080
:1016C0000020042A25D120001EF027FDAB0722D1DF
:1016D000184B2A689A421ED103AA29000CF04AFC32
:1016E000102020F079FE144BE2680360039B6168D0
:1016F00053435B184360049B6168019353435B1839
:10170000059983604A43C260002902DAE2689B1AA5
:10171000836007B030BD002301002A00206808F074
:10172000CBF9E36858436368C018012340001843AD
:10173000EFE7C046089C020094890200F0B50E0055
:10174000002785B0110003901D0001220323300003
:1017500000970EF033FF102020F03EFE039B0400A4
:10176000036001234760C36028689E4205D108F0EA
:10177000CBF8A060200005B0F0BD08F0C5F86060AF
:10178000686808F0C1F8A060032EF3D1A86808F0DB
:10179000BBF8E0600028EDD1014809F011FFC04618
:1017A000C1F8020070B50D004A688B680849040052
:1017B00023F09BF8EA68012A04D10649200022F0B0
:1017C000D3FF70BD0449200023F08FF8F9E7C0462D
:1017D000CBF80200AC1A0300D8F80200136810B569
:1017E0001400002B05D1A42904D1406822F06BFF1E
:1017F000206010BDB9235B00994201D18068F5E7F4
:10180000024B9942F5D1C068F0E7C046BE02000025
:10181000F0B50D00002785B0110003901E002800D0
:10182000104B022200970EF0C9FEAB1C9B00180063
:10183000029320F0D1FD0400039B013D036045604D
:101840003368029D8360083D0437BD4202D1200009
:1018500005B0F0BD0021F05909F084FAE319986051
:10186000F2E7C046FFFF000080235B051869034BC9
:101870001B7843438020C002C01A7047FB2D002014
:1018800080235B051869034B1B7843438020C0020B
:10189000C01A7047FC2D002070B5084DC4012B689C
:1018A0000021181923F0E1FC2868054B00197F304E
:1018B00000781B788342F0D270BDC046BC02002085
:1018C000FA2D002010B5C3790400002B08D0064A79
:1018D000037981791068DB01C018013023F0C5FC61
:1018E0000023237210BDC046BC02002010B5124B6D
:1018F00001001A684379DB01D31818007F3004789F
:10190000FF2C08D10879C00112185278FF2A0FD095
:10191000887990420CD08A799B180132D2B25878DB
:101920007E2A01D08A7110BD00234C718B71FAE7B9
:1019300001204042F7E7C046BC02002070B5F82401
:101940008025A40223786D054D2B4CD12B69802076
:10195000E41A2B69C002E41A2969001B17F00CFA7B
:101960002B4B2C4918702B69E21852185D42154018
:10197000294B2A4A9B1A2A4A9B1880225205116930
:101980009D4234D38020C002401B17F0F5F9254B4F
:10199000641B1870E411244BE4B21C70A1200123D5
:1019A0000025224A22491360C0004D604B68002B7D
:1019B000FCD01358DBB2A342F7D21E4901330B709F
:1019C00001235360FFF750FF037805001A4CFD2BED
:1019D0000FD180235B051869184BC009C018C001DE
:1019E0002818206070BD80242B69E402AFE76D18D1
:1019F000C5E7FFF745FF0378803DFD2B01D125604A
:101A0000F0E7FFF73DFFFD2123F02FFCF7E7C0468D
:101A1000FC2D0020FF87FFFF78020020000000203F
:101A200028780300FB2D0020FA2D002000D0004074
:101A3000FCD00040FD2D0020BC020020FFFFFF0174
:101A4000F7B5254B254F1A78254B14001B783968BC
:101A50000133E001405CFF2829D00134E4B29C420C
:101A600000D101249442F4D1802300265B051B6938
:101A7000DB090193E30100933B68E2019D182B7899
:101A800028005A425341F61823F005FC002810D0D4
:101A9000002304E0DA01AA5C002A0AD10133019A8A
:101AA0009342F7D13868009BC01823F0EAFB20006E
:101AB000FEBD0B4B01341B78E4B201339C4200D1D4
:101AC0000124054B1B78A342D4D1072E02D91EF066
:101AD00056FBB6E7FF24EAE7FD2D0020BC020020FC
:101AE000FA2D0020F7B507000D0001240E4B1B78DE
:101AF00001930E4B1E68019BA34202D2FF242000DB
:101B0000FEBDE10171180B78FE2B09D18B78AB4239
:101B100006D103312A00380026F00BF90028EED058
:101B20000134E4B2E7E7C046FA2D0020BC020020F1
:101B300010B5054A03791068DB01C01881780022CE
:101B4000033011F029FB10BDBC020020F0B585B0B8
:101B500002900D0016000393782949D8FFF7C2FFC1
:101B60000400002E3CD0FF2801D0FFF795FEFFF7C0
:101B700067FF0400FF2803D11E491F4821F024FC01
:101B80001E4FC0013B680190FE21181823F06DFB29
:101B90003B68019AE9B29818023023F066FB386876
:101BA000019B2A00C0180330029910F0AFFC0C20F2
:101BB00020F012FC039A0300002A17D0104A1A6082
:101BC0000E4A1C7112685C71E4011419A278DE716E
:101BD00002329A7101221A726A46127B5A7202E02C
:101BE0003300FF28E3D1180005B0F0BD054AE6E751
:101BF0000023F8E7DEF802001CB00200BC0200205F
:101C0000B48502006086020007B501A911F01CFF2F
:101C10000199FFF767FFFF2803D10449044821F029
:101C2000D3FBFFF739FE03480EBDC04661F8020042
:101C30001CB00200988A0200F7B50192027A0400F3
:101C40000091002A02D1244809F0BAFCC579002D80
:101C500006D1224A17680279D201D25D002A05D145
:101C6000092201251A606D422800FEBD61797E229D
:101C7000C901791808007F30A3790078D21AFF28AB
:101C800009D12079C00138184078FF2819D0C01A2E
:101C9000824200D902000198461B964200D91600E4
:101CA000002EE1D0009A01335019C918320026F0F5
:101CB0004FF8A3799B19DBB27E2B04D0A371AD1929
:101CC000D4E70022E7E70023A3716379DB01FB1867
:101CD0007F331B786371F2E7F4F80200BC02002046
:101CE000F0B585B00393037A040002910192002BB2
:101CF00002D1304809F064FCC379002B08D02E4A89
:101D000003791268DB019B5C019A0092002B25D1BC
:101D10000923039A13600A3B0193019805B0F0BDB3
:101D20007E22A379D71A009A974200D917006079CA
:101D3000214E0133C001C01833683A0018180299C7
:101D400010F0E4FBA379DB19DBB27E2B0AD0A37180
:101D5000029BDB190293009BDB1B0093009B002B73
:101D6000DED1DAE70023A371FFF76AFE0500FF2842
:101D700009D12079FFF790FD002323721C23039AD9
:101D800013601D3BC8E760793368C001181829004B
:101D90007F3023F06AFA3368ED015819617923F036
:101DA00064FA62793368D2019B187F331B786371C0
:101DB000CEE7C046F4F80200BC020020002170B556
:101DC00008001FF029FF012405000C4B1B78A342DB
:101DD00001D2280070BD0A4AE3011068C0180378D8
:101DE000FE2B08D181780022033011F0D5F90100D3
:101DF000280004F0DDF80134E4B2E6E7FA2D002013
:101E0000BC02002073B501A911F01EFE0199FFF775
:101E100069FEFF2803D10E490E4821F0D5FA0025AE
:101E20007E260D4B1C68C301E31859789B7802335A
:101E3000DBB2C201A2187F321078FF2804D1C81A81
:101E4000401922F040FC76BDF31AED180023F0E7AC
:101E500061F802001CB00200BC0200201FB5034A5A
:101E6000034B21F0F6F905B000BDC046ED180000A7
:101E7000C518000070B5137804000A3BD8B20F28CB
:101E800009D90A001048114907F0A0FB0025636A30
:101E90001860280070BD002552781B021A43E36ABF
:101EA000AB420AD1238C0025042BF2D10849064805
:101EB00007F08CFB636A1860EBE7206BA9000958F8
:101EC0009142E6D00135EBE70CB1020094FA020032
:101ED000A9FA0200F0B5040085B00D00100003A9B6
:101EE000A26A1E0023F004F8002809D12A000B4939
:101EF0000B4807F06BFB636A1860002005B0F0BD6B
:101F0000039807F02DFD0300B343F7D003000096BC
:101F10002A000449024807F059FBECE750FA020096
:101F20000CB1020068FA0200F7B51F0013780E002A
:101F30000A3BD9B2050021480F2904D850781B026A
:101F4000184321F0EEF815240378009315231C495B
:101F50001B1B0193A300CB1A190055310978009A75
:101F600091421FD119005631427809788A4219D11D
:101F7000573381781B788B4214D1002B0FD1019BF2
:101F80009A000F4BD05CB84208D93B0032000D4993
:101F90000D4807F01BFB6B6A18600020FEBDC3787C
:101FA000002BECD0013C002CD0D132000749064870
:101FB00007F00CFB6B6A18602000EFE7524103004A
:101FC0000CFB0200C0FA02000CB10200D9FA0200B8
:101FD000F0B5137885B005000E00462B47D101A956
:101FE000100022F0B5FF019B834240D003781A0015
:101FF0000A3A0F2A0AD802000F2331002800FFF7FF
:1020000093FF01248440200005B0F0BDB32B2ED1F6
:1020100022F099FF040022F091FF02900378B62B82
:1020200025D10127A73B220031002800FFF77CFFC4
:102030003C0003A98440029822F08AFF039B02908F
:102040009842E0D09D2102A822F091FF029A039BC2
:102050009A42D8D00F2331002800FFF765FF3B00DC
:10206000834002981C4322F069FF0290EEE73200A1
:102070000349044807F0AAFA6B6A00241860C2E713
:10208000F1FA02000CB10200F0B50E0087B00400B6
:1020900004A930001F00019221F048F8019B0500BF
:1020A000002B0FD1A4239B009E4205D1BF21090222
:1020B00020001FF0F3FE19E0BE4B9E4200D088E0E6
:1020C000BD49F5E7019B012B00D09AE00A23FF33BD
:1020D0009E420DD101003A682000FFF7CBFE0100BF
:1020E00020001FF025FF002800D115E207B0F0BD49
:1020F000B24B9E4209D101003A682000FFF7BAFEB8
:10210000010020001FF06CFFEDE7AD4B9E420AD1AD
:1021100001000F233A682000FFF706FF8E21C00060
:10212000C9010143C4E70378622B3BD1049B032B15
:1021300007D0052B36D1C3785F2B33D103796E2BB3
:1021400030D101230E265B4269789E480293B3008A
:10215000F31AC3181A002B3212788A4209D1AA78CE
:1021600094461A002C321278944502D12A331B78F7
:102170000293013E002EEAD1029B013329D03A6836
:1021800029002000FFF776FE049B0200052B03D1F7
:102190002E79773E73425E413300029920001FF092
:1021A000E3FEA0E7884B9E4201D1884980E7884B37
:1021B0009E4201D187497BE7874B9E4212D129007D
:1021C0003A682000FFF704FFFF231B02B4211842E6
:1021D00015D0019B2A008149814807F0F7F9636A0D
:1021E000186083E77F4B9E42F3D13A6829002000B4
:1021F000FFF7EEFEFF231B021842EAD1BC210902C1
:102200008FE7019B022B00D01FE17B68764A1B7889
:102210000A3B0F2B48D8964212D13A6801000F238F
:102220002000FFF781FE7A68060029000F232000B6
:10223000FFF77AFE3100020020001FF062FE55E732
:1022400000226A4B02929E421AD18026F6013A6819
:10225000290007232000FFF767FE7A680190290014
:1022600007232000FFF760FE019A030031002000E1
:102270001FF040FE3AE7029B013302930F2BA8D0D8
:10228000029B03229E005A4B2800991925F0A9FDB4
:102290000028F0D1EB78002BEDD1564BF65C802373
:1022A0003601DB011E43D2E796421AD1802607236E
:1022B0003A6829002000FFF737FEFF23019029002C
:1022C0007A682000FFF706FE0100019BB6011B02A1
:1022D00031431943ECE6A026E9E7C026E7E7E0260C
:1022E000E5E787239B009E42F5D01E3B9E42F4D03B
:1022F000C6339E42F3D0404B9E4251D03F4B9E424C
:1023000050D03F4B9E424FD03E4B9E424ED0013369
:102310009E424DD03C4B9E4200D05AE705233B4A9B
:102320009B009B5A290002933A6807232000FFF77D
:10233000FBFD7E6803903378452B69D1300022F095
:1023400042FE002864D1300022F0FDFD0378A62B68
:102350005ED105A922F0FCFD0599060022F0E2FD00
:10236000022855D1300022F0E9FD07233200070092
:1023700029002000FFF7D8FD029B0600DB044FD5A3
:102380001F233A0029002000FFF7A4FDF100039B62
:10239000029E80011E433143F826F6003040C0E61D
:1023A0000023BCE70123BAE7019BB8E70323B6E7A4
:1023B0000423B4E7E502000030BF00000B02000078
:1023C0000F02000011F902002202000072B60000A4
:1023D0002302000062B600009F020000CBF9020059
:1023E0000CB102009A020000890200000102000004
:1023F00015FA020014FA02006E0200006F020000DB
:1024000071020000BF020000C2020000F0E60200FC
:102410002A004549454807F0D9F8636A1860D8E6AC
:102420006B4608229B5E002B07DA3E233A00290008
:102430002000FFF74FFD4008A8E77C233A00290061
:102440002000FFF747FD8008A0E7019B032B00D089
:10245000BFE69E239B009E4222D100263A680723B6
:1024600029002000FFF760FD7A680190072329000A
:102470002000FFF759FD1F230290BA6829002000B1
:10248000FFF728FD019F029B374381013943DE009E
:1024900031430DE680263601E0E780267601DDE750
:1024A000234B9E42F6D0234B9E42F6D0093B9E42E0
:1024B0002BD1C02607233A6829002000FFF734FDFE
:1024C000072301907A6829002000FFF72DFDBA68E4
:1024D0007601137802900A3B0F2B0DD807232900B1
:1024E0002000FFF721FD029BD900019B19433143D6
:1024F0000F0081013943DBE58023DB001E43290007
:1025000007232000FFF7E6FCEDE7B1239B009E4286
:1025100000D05EE6D026CDE707490448646A20F083
:102520007CFD2060E2E5C046A0F902000CB102008B
:10253000790200000702000000FA0200F7B50E0061
:1025400007001100300022F0EDFC002504000428F3
:102550001ED97C6A1349144820F05FFD20600024D6
:102560002000FEBD73780002184320F0DAFD023629
:10257000019025F02FFC022811D1019B1B78722BB2
:102580000DD1019B5A782B0030339A4207D1013587
:10259000A542E5D030780A38C3B20F2BE2D97C6A65
:1025A0000249D8E73BF902000CB102006EF90200C3
:1025B00010B5040008201FF00FFF024B44600360B9
:1025C00010BDC0465C8A020010B5024922F0CCF86A
:1025D00010BDC04660FB0200184BF7B530CB0F00B2
:1025E000160001281AD94B68154A934207D099075B
:1025F00011D114491C688C420DD11C001D00022809
:102600000CD0BB68934209D09A0704D10D4A1968CF
:102610001C00914202D0002009F096F901A9386807
:1026200011F012FA019A01000023102020F04EFE52
:102630002A003100230008F07BFFFEBD742E00202D
:10264000988A0200A4D9020030B58DB00500684612
:1026500007F030FF011E10D12A1D012020F078FE66
:102660000122EB6804005B1001335B001343EB6055
:1026700007F03EFF20000DB030BD0198054A036809
:10268000934205D0044A00249342F3D007F038FF68
:102690000024EFE7D0B0020078AE0200044B0B60DC
:1026A00003684B60436808008B600123CB60704770
:1026B000F08A02000022104B10491A600300123306
:1026C000FF3341185A701A7004338B42FAD101005B
:1026D0000300002209310833FF311A709A705A70D2
:1026E000DA7004338B42F8D1C3237F229B00C2549B
:1026F000034B044A1A607047C00200201103000017
:102700000400002065FB0200F0B500267E243200A4
:1027100031009300C318FF335F7C7F2F4CD09B7C2C
:10272000F618F6B2531CDBB2EF2E2AD9C1267D254E
:10273000B60086193700AC469C4516DA9B00C318D4
:10274000FF3359749974D97419757D230232D2B24A
:10275000934211DA9300C318FF335C749974D974EF
:10276000197500260132D2B2D3E73D68043FBD603F
:1027700001256D42AC44DFE73568013B7560043EDE
:10278000E6E77D2FEED80D4DEF5D01252F42E9D014
:10279000C1227D26920082189E4208DA9A00821891
:1027A000FF3254749174D17411751A00D9E7156809
:1027B000013E5560043AEFE7F0BDC04648FC020018
:1027C00070B5002140250D4C8B00C318FF335A7C97
:1027D0007F2A11D0A25C0131C9B22A42F4D05A7DBD
:1027E0007F2AF1D0A25C7F2AEED9DA7D56B2002E84
:1027F000EADD0132DA74E7E770BDC046F7FB02009C
:102800000300F7B500214C4A1333FF3382181970C7
:1028100004339A42FBD1FC2300249C4622008444CA
:1028200053B2002B04DA454B454A1A60002008E0F9
:1028300063461F69BC4205D37F2344329200135480
:102840000120FEBDDE68355D602D01D9203DEDB271
:10285000611CC9B28F4251D0735C602B01D9203BFF
:10286000DBB2232D4DD1303B092B02D9334B354AF6
:10287000DBE70234E1B28F4204D8FF2BF6D8437075
:102880000C00CDE7745C2500303D092DF5D80A25F4
:102890006B430131303BE318C9B2ECE70136512EEE
:1028A00030D10023284C1F5DDEB22A2F0CD1274FD8
:1028B000FF5CAF4208D19300C318FF335E744478C5
:1028C00001321C75D2B2DBE70133512BEBD1204C26
:1028D000493B08342678AE4208D0013C002B02D197
:1028E000164B1C4AA1E7013BDBB2F3E7002BF7D004
:1028F00014004334A4000419A370C1E7232DB5D0FC
:1029000000230026F7B20197104FF75DAF42C5D103
:102910000D4FF75D2A2FC1D09F42BFD1694693006A
:102920000979C318FF33597441780132023419759B
:10293000D2B2E1B2A4E7C0461203000004000020B6
:1029400068FB02007AFB020087FD020036FD0200F0
:10295000D8FD020088FB020010B51130084A094971
:10296000FF3003787F2B00D110BD02240457002CC8
:1029700003DCCB5C43700430F3E7D35CFAE7C0467A
:10298000E6FC020096FC0200F0B50023070085B0CB
:102990009E00BE193100FF314A7C9C467F2A01D13E
:1029A00005B0F0BD544B02209C5C63460133DBB2A2
:1029B0000442EDD0012560462C4247D15419E0B2C3
:1029C00000904E487C35801840780190C87C097D85
:1029D00002900391C1218900791808009D422BDAE9
:1029E00068469B000078FB18FF33587468460079EE
:1029F000941C98746846007AE4B2D8746846007BE8
:102A000018753E48634682183000FF309578027D85
:102A1000023300927D22C67CDBB29A4211DA9B001F
:102A2000FB18FF335C749D74DE746A4612781A7565
:102A300063460333DBB2ABE70468013D446004380E
:102A4000CCE70868013A48600439E6E70130C0B2D3
:102A5000010044318900C95D0029F7D07F2909D0E0
:102A600008242548405C204200D091E72439012900
:102A700000D88DE73000511CC9B200911F49FF30CA
:102A8000891849787D250191C17C0291017D0391CE
:102A9000C121890079180C009D4223DA6C469B0005
:102AA0002478FB18FF335C746C462479134D9C74B6
:102AB0006C46247ADC746C46247B1C75941CAA1822
:102AC00063469678027D023300927D22C57CDBB29C
:102AD000E4B29A420BDA9B00FB18FF335C749E74DD
:102AE000DD74A2E72668013D6660043CD4E708680F
:102AF000013A48600439ECE7F7FB020096FC02005B
:102B0000F7B500229300C318FF335C7C002C03D17F
:102B10000132D1B20A00F5E77F2C00D127E110265F
:102B200093490D5D511CC9B2354228D0DC7CAD06FD
:102B3000ED0FA4462C00C1251434AD001F7D019477
:102B400045196D368E4215DA6C468D00247945198B
:102B5000FF356C740024AC7464462F75EC745C7C97
:102B6000352C00D0C5E05A7B824CA25C5207D1D5EF
:102B7000102285E02C68013E6C60043DE2E74E2C9B
:102B80001CD118220D24DD7C5C741E7DC1239B00AA
:102B9000C31870348C420CDA8B00C318FF335A749C
:102BA0000022DD749A741E75B4E71B22EAE71C222A
:102BB000E8E71F68013C5F60043BEBE74F2CF4D073
:102BC000502CF4D06DB2002D2BDADD7C002D28D0F6
:102BD0000D004435AD002D5C002D22D1961CF5B2C0
:102BE0000195AD004519FF356F7C7F2F19D0604EE0
:102BF000F75D7F2F15D9EF7C002F12D0C1237D22E6
:102C00009B00C318019C944206DD1F236B740023B4
:102C1000AB74EB742B757DE71C68013A5C60043B78
:102C2000F0E7172C2ED15C7B013AD2B2452C1DD196
:102C30001B3C5C7315004335AD004D4C2D5C655D50
:102C40007F2D00D866E70132D2B292008218FF329F
:102C5000557C002D00D180E0645D7F2C00D859E7C1
:102C6000D27C002A00D055E71E3209E0392C01D170
:102C70000D3CDEE73E4A125D7F2A00D84AE7122269
:102C80005A7447E7182C07D15A7B394CA25C7F2A2B
:102C900000D83FE71322F3E7202C05D15A7B3C2ACA
:102CA00000D037E7163AEBE7482C15D15C7D7F2C36
:102CB00002D14B245C7403E02D4D2C5DA406F8D5A5
:102CC0005C7C2B4D2D5DED0700D448E75D7B202D0E
:102CD0003CD10C3C5C741DE73C2CF1D15A7D7F2A21
:102CE00000D117E7224CA25C920600D512E73F22E2
:102CF000C6E72A2C16D1DA7C1C7DC1237D259B00DA
:102D0000C3188D4209DA2B258B00C318FF335D747D
:102D10000025DA749D741C75FCE61E68013D5E603A
:102D2000043BEEE72C2C11D1DA7C1C7DC1237D25E0
:102D30009B00C3188D4204DA8B00C318FF332D2586
:102D4000E5E71E68013D5E60043BF3E7452C00D1DA
:102D500070E7392C00D0DDE66CE7527D7F2A00D188
:102D6000D8E6A25C7F2A00D8D4E61E2288E7F7BD09
:102D7000F7FB020048FC0200F0B50022060085B017
:102D8000130044339B009B5D7F2B31D05B4CE35C95
:102D9000DB072AD51300511EC9B244318900584FB0
:102DA0007118013BDBB2002B23D008787F2803D0B9
:102DB000385C04397F28F4D999007118FF31487CB8
:102DC0007F280ED02027255C3D4204D04C4D285C46
:102DD0000425284205D0887C4508AC460130604473
:102DE00088740133DBB29342E6D10132D2B2C7E735
:102DF0000023022712E06B0708D4EB070DD56246CB
:102E0000FF32937CD9085B1A937406E0039B039A04
:102E10009B7B99080133CB189373029B9A00B218DD
:102E20001100FF3194464A7C7F2A64D034485D1CEF
:102E3000845CEDB2029565B2002D21DA029A92000F
:102E4000B218FF320392527C0192855C019C2A00E9
:102E500041257F2C00D0150040242242CBD1019C7B
:102E6000123C012CD9D840220233DBB244339B0000
:102E70009B5DC35C1342D0D08B7C013B8B74CCE751
:102E80001E4DAA5C08252A420ED0029B9B00F31817
:102E9000FF335A7C7F2AC0D0825C3A42BDD00622E2
:102EA0009A7405229A73B8E73C421AD00133DBB218
:102EB0001A0044329200925D002AF7D07F2AACD0EB
:102EC0000F498A5C3A42A8D09B00F318FF339A7CE2
:102ED000520801329A746246FF32937C5B080133D8
:102EE00092E710231A4298D04B7BC35C3B4294D0AC
:102EF0008B7C023BC2E705B0F0BDC04648FC020037
:102F0000F7FB020070B50400FFF7D4FB2000FFF7C9
:102F100077FC23000022FC33DA601A61904226D04D
:102F20002500224E11353368FF35934203D0290026
:102F30001F4800F001FF2000FFF7E2FD2000FFF72F
:102F40003FFC2000FFF708FD2000FFF715FF2000E1
:102F5000FFF71AFDC4222B009200A1181A78502AFC
:102F600006D97F2A07D00020124B134A1A6070BD81
:102F700004338B42F2D13368002B02D00F481CF08F
:102F80004FF92000FFF7C0FB3368002B03D0290066
:102F90000B4800F0D1FE20001DF0C9F9054B09498E
:102FA000186824F00DFF43425841E0E76803002011
:102FB0009FFB020004000020AEFB0200D4FB0200D5
:102FC000E4FB020065FB02000139C9B2054B401861
:102FD00080301970044A03781370044AD25C044BA1
:102FE0001A707047FF2D0020002E0020A00F030054
:102FF000FE2D00200131C9B2054B401880301970F8
:10300000044A03781370044AD25C044B1A70704768
:10301000FF2D0020002E0020A00F0300FE2D002019
:10302000074B984206D9074B1818074B4118C91887
:1030300008787047054B18184118054BF7E7C0464C
:10304000A4920000E10D03005B6DFFFFF5FD02009F
:103050000083FFFF03002022F0B57F254F265F2766
:10306000803304001A7089B003007F3019780A0099
:103070002A406F2A29D90A003A40190001338131C8
:103080000A709842F2D17F22BB4B1A702300643A37
:10309000FF331A70E4320292531CDBB204936B4686
:1030A000B6481B7CB6490370049BE31880331B7839
:1030B0000B705B2B0ED19B22029B0A700133DBB29B
:1030C0000370E254012009B0F0BD5F2AD5D90A008F
:1030D0003240D2E72E2B13D10232D2B20270A218A4
:1030E00080321278A4480270A648825C0120024215
:1030F00006D1029A0B701218D2B20292A354D7E1F1
:1031000002209D4A13709F4AD25C104000D0A8E074
:10311000002A19D19948203203780A70E3188033C5
:103120001A70029B0133DBB202936B461B7A037069
:10313000029B782B01D8E254BAE19B23029AA35454
:103140006B461B7C0B70BDE716007F2552B2AE4369
:103150000E70002A03DB8C4B8C4A1A60B3E7413BAC
:103160008B4ADBB28B49D25CCB5C120213430393D4
:10317000039B002101339BB218000393FFF750FF1C
:103180000306F5D50123002601277B4D2B7039005E
:103190000398FFF745FF7B1CDBB20193282862D11F
:1031A000002E00D02F702D780135EDB22900039844
:1031B000FFF736FF6B1CDBB2292857D17F26069319
:1031C00006990398FFF72CFF069B30400133DBB2D2
:1031D0003D284DD16A466A4B127C1870674B002619
:1031E0001A706A46644B12791A70049B0593059B0A
:1031F0000199E31880331B7803980793FFF710FFBA
:10320000079B9842B4D1019B0133DBB20193AB42DF
:1032100030D1002E03D06A46584B127D1A70049D9F
:10322000013FFFB2544B390003981F70FFF7F8FEBF
:10323000534E030600D509E1504B7F211870514BC6
:103240001B5C1A005BB28A433270002B18DA4B4BBE
:10325000013DEDB21D70631980331B789842DFD0B9
:1032600086E74D4B83E70126019F90E71D009DE710
:103270000693A5E7059B01260133DBB20593B6E76C
:10328000307020281BD0232825D02E282CD026288B
:1032900032D040284ED05E2856D02B285CD03A2819
:1032A00000D030E1202629002000FFF78DFE344AAF
:1032B000137833401370B3D0304B1D78F3E72900F7
:1032C0002000FFF781FE0023F356002B00DA4FE7C2
:1032D0002A4B1D78A4E729002000FFF775FE402245
:1032E00033781342F4D143E729002000FFF76CFE46
:1032F00033781B07ECD43BE729002000FFF764FE7E
:103300001022337813403370E2D11C4B1B78E11844
:10331000803109783170482900D029E7013B1749ED
:10332000DBB20B70E31880331B789343432B00D040
:103330001EE7CDE729002000FFF746FE0422337880
:1033400013403370C4D113E729002000FFF73CFE7F
:1033500033789B06BCD40BE7084B013DEDB21D70E2
:10336000651980352B78452BB2D010229343492B19
:1033700000D0FDE6ACE7C046002E0020FF2D002067
:10338000FE2D0020A00F030004000020E1FD02003C
:10339000261003000C100300A59200006B1C934A3A
:1033A000DBB21370E31880331B7891490B70452B07
:1033B00036D1A81CC0B2231880331B788D4E3370D1
:1033C0008D4EF656002E02DB884B1D783FE01070C4
:1033D0000B70522BF8D0532BF6D0442BF4D04C2B3F
:1033E00008D10335EDB21570651980352B78592B4E
:1033F000EAD0BDE6462B00D0BAE6EB1CDBB2137078
:10340000E31880331B780B70552B00D0B0E60435E1
:10341000EDB21570651980352B784C2BD4D0A7E60A
:10342000492B00D0A4E6AB1CDBB21370E318803349
:103430001B780B704E2B00D09AE60335EDB2157059
:10344000651980352B78472BBED091E6059D6A46DD
:10345000019B03980133DBB201931279654B01990B
:103460001A70FFF7DDFD019B069A604F934221D150
:1034700000257F272E0001990398FFF7D1FD030057
:103480003B403D2B04D0029A0132D2B20292A354A7
:10349000019A0132D2B2010600D4A3E0002E03D07B
:1034A0006946544A09791170514A1370059B049377
:1034B000049AF1E5504B7F211B5C4D4E1A005BB224
:1034C0008A4338703270002B08DA0135EDB2631987
:1034D00080331B783D708342B9D049E63070202894
:1034E00016D023281ED02E2826D026282DD04028BE
:1034F00048D05E2851D02B2858D020263A2864D0B6
:10350000252800D14AE73D4B3D4A00201A60DAE504
:1035100029002000FFF76EFD0023F356002B00DB8F
:1035200052E725E629002000FFF764FD40223378AA
:10353000134200D048E71BE629002000FFF75AFDA0
:1035400033781B0700D53FE712E629002000FFF77C
:1035500051FD102233781340337000D034E73B78AC
:10356000E118803109783170482900D000E6013334
:10357000DBB23B70E31880331B789343432B00D0BE
:10358000F6E521E729002000FFF734FD0422337817
:103590001340337000D017E7EAE529002000FFF759
:1035A00029FD33789B0600D50EE7E1E50135EDB244
:1035B0003D70651980352B78452B00D104E710222A
:1035C0009343492B00D0D3E5FEE629002000FFF706
:1035D00011FD074A13783340137000D137E7034BCE
:1035E0001D78F2E70192012645E7C046FF2D002035
:1035F000FE2D0020002E0020A00F0300040000205C
:10360000EBFD0200014B58687047C046742E002045
:10361000014B18687047C046742E0020F0B5194E53
:1036200087B03368050000200C00019322F00CF9EC
:103630003060009020681FF07CFE019B0700336023
:10364000114E022D03D0A06806F076F80600210086
:1036500063680831A81E039303F0B2F8009B04903E
:103660000593002203AB0321300007F085FA074BD6
:1036700004009F4203D0010038001CF048FE2000E7
:1036800007B0F0BD742E0020D8A20200988A020074
:103690001FB5694607F066FB0400200007F0C4FB75
:1036A000002802D1044804B010BD06F06BFA0028CF
:1036B000F3D10248F7E7C046A8C90200A0C902003A
:1036C0001FB5694607F04EFB0400200007F0ACFB75
:1036D000002802D1044804B010BD06F053FA0028B7
:1036E000F3D00248F7E7C046A0C90200A8C902000B
:1036F00010B506F0A5F8034B002800D1024B1800C6
:1037000010BDC046A8C90200A0C9020037B506F026
:10371000FBF801AB7F2806D80121187001221800A0
:103720000FF03AFD3EBD1E49820988420BD8402168
:1037300049420A431A703F2202408020404210430F
:1037400058704231EAE7174C010BA0420ED82024F2
:1037500064422143197080215F3449422240204055
:103760000A43014399705A700321D7E70E4CA042D7
:1037700012D81024850C64422C431C703F258024F1
:10378000294064422A402840214322432043597063
:103790009A70D8700421C1E7044807F011FFC046B1
:1037A000FF070000FFFF0000FFFF100040100300B4
:1037B000F0B589B0019204000D0000222F49019854
:1037C000029311F049FD0090002801D04368009356
:1037D000012C16D0A4002B19002427000193019B73
:1037E0009D4224D0009B2E68002B04D0310018008D
:1037F0001FF0A6FD0600002C37D137002C680435D9
:10380000EDE7002404A9286807F0ACFA270003902C
:10381000039807F009FB051E0CD1002C07D12200EC
:103820001749019811F018FD00281BD044682000AA
:1038300009B0F0BD009B2E00002B04D02900180019
:103840001FF07EFD0600002C09D03A0031000298DE
:1038500007F0BEFE0B4B984201D025003E002C0025
:103860003700D5E7084807F0ABFE3A003100029870
:1038700007F0AEFE034B9842C1D1BEE756130000DD
:103880002E110000A8C902006110030037B501A97C
:10389000050010F0D9F81E4B04002B40062B05D074
:1038A000AB072AD11B4B2A689A4226D101992000E6
:1038B0001EF0CEF80190012822D1207843B2002BCF
:1038C00004DB012023785B0018433EBD7F230134D5
:1038D00018403F3B034208D13F222378190091430F
:1038E000802905D020F0EFFEEFE798435B10F1E769
:1038F0008001134001341843EFE7019B012BE0D016
:10390000019A0549054805F061FE06F0F9FDC0463B
:10391000070080FF64C002007A10030084B1020037
:10392000F0B5140087B002900391002223492000D3
:1039300011F092FC002205002149200011F08CFCBE
:1039400001230400049305931E4F002D07D06868DF
:103950001D4B984203D004A910F076F807001B4EC7
:10396000002C07D06068184B984203D005A910F0CE
:103970006BF806000024029B154D9C420AD10023DF
:10398000059A01930093310028000BF017F90E48B7
:1039900007B0F0BD002C07D00023049A01930093D8
:1039A000390028000BF00AF90399A3000022C95836
:1039B000280005F0D9FE0134DDE7C0468615000079
:1039C00096110000BE130300988A02009D1B03009D
:1039D000A0C5020010B5040086B06A4602A81021F6
:1039E0000BF0FEFC01222100684605F0BDFE02A995
:1039F00002480FF09BFB06B010BDC04664C0020039
:103A000070B50C68E30726D4A30703D1174B2268CF
:103A10009A4220D0012820D9486805F075FF060099
:103A2000200005F0D5FF051C300016F02BFB011C13
:103A30000F4818F051FF011C041C281C15F0F6FF5C
:103A400018F046FF211C15F019FE032302249843A9
:103A5000084B0443E418200070BD200005F0B8FFB7
:103A600018F036FF11F06EFA0400F4E75CDA020099
:103A7000000020410000808030B50B0085B01400AC
:103A8000012802D9094807F05FFF09480121C268EF
:103A90000192019D0022A8472200039003A9012062
:103AA00002F0E6FA039805B030BDC046CE10030020
:103AB0002498020013B5040008000FF08FFB6A463B
:103AC0000100200007F0D0F8009B0248002B00D135
:103AD000014816BDA8C90200A0C9020037B50024DC
:103AE000022800D98C6848680D680FF077FB0A4BF4
:103AF0000100002C00D0094B6A4628009847009B23
:103B0000002B07D001991C00002903D018000BF0EE
:103B100031FB040020003EBDCDAC000069AC0000CC
:103B200070B50400080015000FF058FB2A000100D2
:103B3000200007F0F3F8014870BDC046988A0200E3
:103B4000F8B50326050007003540022D16D10E4BAF
:103B50000340062B12D0FF23DB05C418B443201CFE
:103B6000002115F0CFFA002806D080231B06E418A8
:103B7000B443064B2C43E7183800F8BD38000AF070
:103B8000E1FD0700F8E7C046070080FF00008080E5
:103B90007FB50B00012803D10021186805F0FEFD58
:103BA000102102A820F046FF0C4902A81CF09AF947
:103BB000032804D10A481FF023FA06F0A1FC039B56
:103BC0000193002B03D1042801D10648F3E702A991
:103BD00005480FF0ABFA07B000BDC04652410300E4
:103BE000F0AE02004CAD020064C0020010B507F058
:103BF000F3F8002804D103481FF002FA06F080FC15
:103C000010BDC046D0B0020010B5022803D005494F
:103C100005481FF0D9FB4A680B20096807F0D8FC5B
:103C200010BDC046B4100300E0AF02007FB50D4DDB
:103C30000400A84213D00C4E01220100300005F010
:103C400093FD0A49300020F08FFD04230293084BB6
:103C50000394DB6902AA03210648019398472800D0
:103C600004B070BD988A0200A0C502009D1B03002D
:103C7000F49F0200B88C0200F8B50E0000280FD1A6
:103C80000400284B1D68002108001DF0C5FF002717
:103C90000600BD4232D10025AC423ED13000F8BD15
:103CA0000868830714D103681F4A93420DD11EF0A0
:103CB00091FB0500306805F03FFD1C4BC2680024F5
:103CC0009A42E0D134680434DDE7194A934201D0C6
:103CD00005F032FD856B002DECD0164B2A689A4218
:103CE000E8D00025E6E7EA68FB009958002904D0EF
:103CF000042902D0300002F05BF90137AB68BB4207
:103D0000F1D8C8E7A268EB009958002904D004292B
:103D100002D0300002F04CF901356368AB42F1D8B3
:103D2000BCE7C046742E0020F49F0200358D0000D1
:103D3000D8A20200A4D90200F7B50600194D0C0064
:103D400028001BF06DFA310017481BF0EFF91748F7
:103D50001BF066FA16481BF063FAFF239B00E61877
:103D600021787F2901D0A64206D128001BF058FAFD
:103D700010481BF055FAF7BD6278A37850290CD88B
:103D80000D48475C0D48405C019300923B000200E7
:103D90000B481BF0CBF90434E2E70A481BF0C6F9E4
:103DA000F9E7C046AC110300D9110300E11103008B
:103DB0006A1103008811030087FD020036FD02002E
:103DC0000212030025120300F0B51D0087B00600A3
:103DD0001A4817000C001BF023FA290018481BF0A2
:103DE000A5F918481BF01CFA17481BF019FAAD008A
:103DF0006519AC4204D111481BF012FA07B0F0BDAE
:103E00003878A2780490206823780003400E03904D
:103E1000E0789B060009029020883178C004400EAB
:103E20000190E0789B0E0007000F009012090748F0
:103E30001BF07CF9043401360137DAE7AC110300DA
:103E4000F910030026110300581103008A11030022
:103E500010B505F0BDFD044915F0E8FD15F09AF91F
:103E60001EF0FEF8014810BD00007A44988A020056
:103E700010B505F049FD002801DD1EF0F1F80148FC
:103E800010BDC046988A020010B50400080005F075
:103E90003BFD64102018034C4000204001242043C7
:103EA00010BDC046FEFFFF7F10B505F02DFD0028B8
:103EB00001DD1EF0D1F8014810BDC046988A02000D
:103EC00010B51EF0E5F8034B4000184001231843DD
:103ED00010BDC046FEFFFF7F10B51EF0D5F8034BA6
:103EE000400018400123184310BDC046FEFFFF7F6D
:103EF000FF230322DB05CB1810B59343042804D815
:103F000014F026FF06030F0416000021080010BD60
:103F10000021181C15F0F0F80A490028F6D00A49CB
:103F2000F4E7181C16F08EF8012140000143EDE77C
:103F3000802109065B18022193431943034BC918DA
:103F4000E4E7C046A8C90200A0C9020000008080C2
:103F5000FF23DB0510B50400C81803239843002392
:103F600086B00193063300931022613302A900F05A
:103F700033F902A9200020F0F7FB2E2102A823F03C
:103F800011FF00280FD1652102A823F00BFF0028A4
:103F900009D16E2102A823F005FF002803D10349AF
:103FA000200020F0E1FB06B010BDC046F314030072
:103FB00030B50C001100002285B01D0000920123D5
:103FC00020000CF0FBFA002C23D02868124B034091
:103FD000062B06D0032420420ED1104B02689A42D1
:103FE0000AD103A90FF030FD0022039900921300BB
:103FF00000F0B0FF05B030BD03002340022BF9D024
:1040000005F0E6FC03000220A3431843044BC0184C
:10401000F0E70448EEE7C046070080FF64C00200F6
:104020000000808002008080F0B5050087B010009D
:10403000019105F0CDFC041C0390681F182800D9DD
:10404000BDE014F085FE0D121F24333E6F81BCBC11
:10405000BCBCBC0D121F24333E6F9FA8ADB2B7008D
:104060000198211C15F070F903E0211C019815F04E
:104070000FFE019003230198524A9843013B0343EA
:104080009B187CE0211C019815F0D0FCF1E7002181
:10409000201C15F031F8002803D04B494B481FF085
:1040A00093F903A901A81CF0CAF9E3E70021201C39
:1040B00015F022F80028F0D1211C019815F0DEFA45
:1040C000D7E70021201C15F017F80028E5D1211CA6
:1040D000019819F015F80021041C019015F00CF856
:1040E000002807D0039A0023002A01DA80231B0648
:1040F0000193BFE70021201C039E012715F002F861
:10410000002800D1071C0021301C012514F0FAFF03
:10411000002800D1051CFFB2EDB2AF42AAD0311C7D
:10412000201C9FE7019D0021281C14F0E5FF0028BA
:1041300005D00021201C14F0E5FF0028ADD1211C82
:10414000281C18F0C9FB94E70021201C14F0D4FFB0
:104150000028A2D103A901A81CF071F903220220B2
:10416000019B1849934303435B180493039B9343B8
:1041700003435B1804A9059302F022FB0300180017
:1041800007B0F0BD0199201C14F0D0FF104B00289F
:10419000F5D1104BF3E70199201C14F0B3FFF5E7BC
:1041A0000199201C14F0A8FFF0E70199201C14F0DD
:1041B000C7FFEBE70199201C14F0AEFFE6E70023F0
:1041C000DDE7C046000080804612030038B20200DE
:1041D000A8C90200A0C90200F0B58BB0079310ABCC
:1041E00010CB009001911B78062A12D8012A08D919
:1041F0003F230B700B0001330193002301990B70D7
:1042000001E0002AF9D101209042804140420BB0E8
:10421000F0BD0099002929DA019B01995F1C2D232B
:104220000B70802109068C46009B63440093019B20
:10423000FF210993009BC90518000840884222D13C
:1042400020234E21079AF81C1A4013001143009AAC
:10425000540212D149225A403A7046225340797092
:10426000BB700023FB70019BC01AD0E7019F002B9D
:10427000DDD0390001370B70D9E741246340397034
:104280007B70B970EDE7002C00DA06240199013A41
:104290007D1A551B2022079911430291672940D1AD
:1042A000002C00D1CFE1002B79D0A64A934200D94F
:1042B000D5E0A549009814F043FF431E9841002320
:1042C0000026303003932033059004939F4B039ACC
:1042D0000099D05814F02AFF002808D0049B039AB4
:1042E000F6189B4B0098D15815F0A0FB0090049B4A
:1042F0005B100493039B04330393182BE6D115330F
:104300000393009A8F4B93425DD38F49009814F02A
:1043100017FF002851D0002E7DD0FE239B0500936F
:1043200051E0002BC1D1029B662B38D1631CAB42FC
:1043300000DBAC1E029B651C049300231E0003934C
:104340000593E343DB171C40049B652B00D0EFE093
:10435000651C00230693069B9D424DDD009815F0D9
:1043600071FE7B1C0893030030333B70059A069B5B
:10437000934205D1002C03D0BB1C08932E237B70E5
:1043800015F080FE011C009815F082FC714915F0B3
:104390004DFB069B009001330693089FDBE7631DEE
:1043A000AB4200DBAC1F029B652B00D1B0E00025C7
:1043B0000493039505952E00C3E70098654915F011
:1043C00035FB01360090029B662B03D0672B3AD158
:1043D000042E38DC6B461B7D3B70029B672B01D1A2
:1043E000731EE418631CAB4200DBAC1E002C15D11D
:1043F0006623013703940493029B662B00D0AFE041
:10440000012E00DDDCE05449009814F099FE0028EC
:1044100000D0ABE0D4E02B2303937EE72E232500CE
:1044200030227B70BB1C013E1F00002E76D0002D79
:1044300005D1039501235B42059367334DE01A7064
:10444000013D0133EFE76B1FA3426CDC029A672A40
:1044500066D01300AC1F00250493059571E7002377
:104460000026039320330493394B039A0099D058C4
:1044700014F052FE002808D0049B039AF618334B20
:104480000098D15815F0D2FA0090049B5B10049369
:10449000039B04330393182BE6D12E49009814F0A4
:1044A0004FFE002805D000982C4915F0BFFA0136C0
:1044B0000090029B662B12D1AE4214DAA31901338D
:1044C000AB4204DBAC1B023C631C00D10024002384
:1044D00035190393013505966633049331E7029B42
:1044E000652B00D0B1E06B1FA34200DCAC1F2B2377
:1044F0000025039305953A33EFE7231DAB4200DB1C
:104500006C1F029BA64200DBA3E0731CE41ADEE7EB
:10451000029B002504932B2303934BE7039689E723
:104520001C00029B97E70025029B059504930BE76F
:10453000049B672B00D00CE7251E00D009E701255E
:104540002C0006E7FFFF7F3FF8FF7F3F149002003B
:104550002C900200000020410000A040CDCCCC3DBA
:104560003E49009814F0ECFD002824D030217B1E39
:104570001A782E2A50D010003038092843D9013338
:104580000193019B1B78302B15D1019A52782E2A6A
:1045900046D10499662943D001994B70039B0A7058
:1045A0002D2B3BD1013E002E3CD03B00019A9A427C
:1045B0003BD331231370029B672B01D1002C3AD1DE
:1045C000039B002B1AD02022079B0A2113401A00BC
:1045D000452313433B706B461B7B30007B7014F00C
:1045E00055FC0A2114F038FD3031B97030000A2131
:1045F00014F032FD3C1D3031F970270000233B7070
:10460000099BF81A03E6392A02D001321A70B7E77B
:10461000019A19709342B4D0013BA9E70136C4E76F
:104620000137C2E72B230393BFE75A1E1178197095
:104630001300BBE71F007B1E1A78302AFAD02E2AFF
:10464000BED11F00BCE701242DE6029B672B00D1E1
:1046500053E704932B2300250393FEE60000A040BC
:104660000300203B5E2B00D93F2005232038434325
:10467000014A1068C018704768000020044B0B60A6
:1046800043684B6083680800CB6000238B607047F1
:10469000A490020070B50500080068430130401086
:1046A00008300C001DF098FE0122044B8571036058
:1046B000037944719343037170BDC046B093020007
:1046C00010B50379DB0702D5014807F03DF910BDAD
:1046D0005712030070B5050020201DF07DFE052156
:1046E0000B4B040003600800FFF7D4FF6B68EA6817
:1046F000A060236162602A7C2000A276AA689B18D1
:1047000063616B7CE3761BF03AFF200070BDC0460E
:10471000F493020070B50D000400FFF7D1FF2800EC
:1047200005F0F2F80100092802D9044806F048FF14
:1047300020001BF086FF024870BDC046F412030043
:10474000988A0200F7B5C3684269040093420BD10E
:10475000037E052B08D1C37E181E43D020001BF01A
:104760000EFFA0681BF07BFF012500266B1E019346
:10477000A7683200290038001BF02FFF3200030029
:104780000199380001361BF035FF052EF0D10135B7
:10479000052DEAD100252A0000230421A068013557
:1047A0001BF028FF052DF6D1227E637E9A421AD295
:1047B000207FFFF755FF002507000426227E7B5D42
:1047C000B21A1341012213400832534304212A0034
:1047D000A06801351BF00EFF052DEFD1237EA068E8
:1047E00001332376FEBD9A42F8D1E36861695A1C11
:1047F000E2608A4205D120232377A023DB002383B4
:10480000ECE758782077FFF72BFFA17E0500002901
:1048100001D0064BF3E71BF089FE404220762800CA
:104820001BF09CFE01306076D8E7C046FF05000013
:10483000F0B50C000B6889B0070018000493FFF76F
:104840003FFF6568280004F077FF1E4B984202D0B6
:104850001D4807F079F8072F01D11C48F9E7A06837
:1048600005F052F80690E06805F04EF807902069D0
:1048700005F04AF80590606905F046F8059B0600CA
:10488000002B01DB002802DA114806F099FE062F02
:1048900014D0A06905F038F80700E06905F034F895
:1048A000059B03900093280002970196079B069AA8
:1048B00004991BF002FF074809B0F0BD0020070073
:1048C000EEE7C046B0930200841203009712030083
:1048D000B1120300988A020070B5040008001600A7
:1048E00005F012F80500300005F00EF80600002D66
:1048F00001DB002802DA0C4806F062FE20001BF003
:10490000C7FEA84204DD20001BF0D0FEB04201DC4F
:104910000648F1E73200290020001BF0ABFE4300FF
:104920000120184370BDC0460D1303002613030079
:10493000F8B50D000C682000FFF7C2FE686804F0AF
:10494000E3FF0600A86804F0DFFF0700002E01DB8C
:10495000002802DA0F4806F033FEE86804F0D4FFBE
:104960000500092801D90C48F5E720001BF090FE4E
:10497000B04204DD20001BF099FEB84201DC07487C
:10498000E9E72B003A00310020001BF033FE044819
:10499000F8BDC0460D130300F412030026130300F4
:1049A000988A0200F7B50E002549040001921FF015
:1049B0009CFF019B002B03D1224920001FF095FF93
:1049C000214920001FF091FF002530001BF06EFEF2
:1049D000A84225DD002730001BF05AFEB8420CDD4E
:1049E00039002A0030001BF045FE184B18491A5CAC
:1049F00020001FF07AFF0137EDE7164920001FF075
:104A000074FF019B002B09D130001BF04FFE0138D1
:104A1000A84203DD104920001FF067FF0135D4E7ED
:104A2000094920001FF061FF019B002B03D10B49B6
:104A300020001FF05AFF0A4920001FF056FFF7BD63
:104A4000B3130300BA130300C6130300C813030013
:104A5000423A0300E2460300C01303009D1B03001B
:104A6000AC1A0300F0B50E00110000228BB01C0040
:104A70000092032330000BF0A1FD032E00D9D5E0F6
:104A8000300014F065F9020B919105210800FFF741
:104A900001FE070038001BF0E2FD18E02068644BBF
:104AA0000340062B07D0830700D07AE0614B0268F1
:104AB0009A4200D075E007A90EF0C6FF079B03904D
:104AC0000593012B06D100781BF0F3FF0700380097
:104AD0000BB0F0BD00231E00039A029303990598C2
:104AE000511A884215DD11780A2901D03A2908D1D6
:104AF0009E4200DA1E00029B013302930023013222
:104B0000ECE701332029FAD03929F8D94A4806F0D0
:104B100057FD002B05D0029A013202929E4200DA24
:104B20001E0002993000FFF7B5FD002507002C009C
:104B3000039B0493039A049B9B1A059A9A4223DDD4
:104B4000049B1B780A2B01D03A2B0FD1A64207DD1C
:104B5000210000232A0038001BF04CFD0134F5E74A
:104B600000240135049B01330493E3E7202B07D194
:104B7000002321002A0038001BF03CFD0134F1E73E
:104B8000392BEFD8303BF4E7029BAB429FDDA642C6
:104B90009DDD210000232A0038001BF02BFD01348D
:104BA000F5E7264806F0D0FE206804F0ADFE0500CB
:104BB000606804F0A9FE029001002800FFF76AFD7A
:104BC0000700022E00D165E7012207A9A06805F0C1
:104BD00055F8002D0BDB029B002B08DB0024089B03
:104BE00003940493029B049A6B43934205D01448A8
:104BF0008DE7039B01345B190393029B9C4200D118
:104C000065E70026AE42F4D0039A079B94460493CE
:104C100063449A5D131C092A00D909233100DBB2D1
:104C2000220038001BF0E6FC0136EBE70548B9E747
:104C3000070080FF64C00200361303005F13030007
:104C40007713030094130300F0B585B001910500BC
:104C50000021019814F056FA041E02D0214806F0F3
:104C6000AFFC28001BF014FD060028001BF01EFD01
:104C700001003000FFF70EFD070028001BF008FDC3
:104C8000A0422CDD002628001BF002FDB04224DDEE
:104C90003200210028001BF0EDFC15F0F3F901991A
:104CA00014F0C4FE16F0C8FF00220F4B15F074FA82
:104CB0000E4B00220290039114F0EAF90923002818
:104CC00004D00298039916F047FF03003200210038
:104CD00038001BF08FFC0136D5E70134CDE73800F2
:104CE00005B0F0BDC91203000000E03F0000224003
:104CF000F0B587B00491059207001BF0D7FC0400C3
:104D000038001BF0C5FC029004981BF0CFFC01900A
:104D1000A04202D0194806F053FC01990298FFF70F
:104D2000B9FC00250390029B9D4223DA0026019BDB
:104D3000B3421DDD3200290038001BF09BFC32001D
:104D40000400290004981BF095FC059B002B0AD059
:104D50002318092B00DD09233200290003981BF0DA
:104D600049FC0136E3E7231ADA43D2171340F3E78D
:104D70000135D8E7039807B0F0BDC046D313030050
:104D8000F8B5040008000D00160004F0D5FC164F1D
:104D9000B84201D000200FE0053C042CFAD82000D6
:104DA00013F0CCFF141403F80B00300004F010FED5
:104DB000011C2800FFF748FFF8BD300004F008FE92
:104DC000011CFE20800514F059FCF1E7300004F0CE
:104DD000B3FCB842DED1624262413100D2B2280057
:104DE000FFF786FFE8E7C046B0930200F7B507007B
:104DF0000193142008AB0E0015001C781DF0ECFA8E
:104E0000044B476003606B461B798660C560037482
:104E10004474FEBD3094020070B505000C201DF0F6
:104E2000DBFA0521044B0400456003600800FFF72E
:104E300031FCA060200070BD5890020010B5040045
:104E4000002906D0044B8A6B03600968002304F034
:104E500029FC200005F054FB0CB10200F0B5040061
:104E600087B0039202936618002A06D0023A222ADB
:104E700003D9354806F0A4FB0134B44229D2207886
:104E800001F000F8071EF7D123782B2B1CD1013439
:104E9000311B200003AA20F0C5F823181C000025B0
:104EA0000193B44217D3002F00D06D4201236D004F
:104EB0001D43019B9C422FD12449039A244804F0AE
:104EC00085FB0299FFF7BAFF2D2BE1D101340127B1
:104ED000DEE70027DCE723781A00303A0092092A3F
:104EE00007D9202213431A00613A192ADBD8573B0D
:104EF00000930399009B9942D5D92800FCF70AFB3F
:104F0000002816D1039B5D43009BED186B006B409E
:104F10000FD40134C5E70134B44205D2207800F043
:104F2000B1FF0028F7D1C7E7B442C5D1280007B0C8
:104F3000F0BD019B3A000593F11A05A8039B1FF0F1
:104F4000E8FB059C0500B4E7271403004A1403009E
:104F5000FCB10200F0B504008BB008934318049232
:104F60000193019B9C4200D3F6E0207800F08AFF79
:104F7000071E38D123782B2B37D101340590019BA4
:104F80009C4200D3EAE0202322781A43692A33D1D5
:104F90000199A21C914200D8E6E062781A436E2A79
:104FA00000D0E1E0A2781A43662A00D0DCE0E21DDE
:104FB000E51C914214D9E2781A43692A10D122796A
:104FC0001A436E2A0CD162791A43692A08D1A27950
:104FD0001A43742A04D1E2791343792B00D10535A1
:104FE000FF26F6051BE00134BBE705902D2BCAD147
:104FF0002C3B01340593C2E76E2A2ED10199A21CE5
:10500000914200D8B0E062781A43612A00D0ABE048
:10501000A27813436E2B00D0A6E05D4EE51C059BE5
:10502000002B02D080231B06F618A5427BD15949DC
:105030008CE03D002B786F1C18003038092834D8DC
:10504000022E15D10A23029A53431B180293019B87
:10505000BB42EED8002304934DE000220792029257
:105060004D4A250006920022002603920993E1E7AB
:1050700015F052F8051C012E0DD1069914F0D6FC3E
:10508000011C039814F060F943490390069814F04A
:10509000CDFC0690DBE74149039814F0C7FC291CBE
:1050A00014F052F900260390D1E7002E03D12E2BE5
:1050B00003D10126CBE7022E16D0099A1A43652A9E
:1050C00012D1019BBB4256D96B782B2B05D1AF1C5B
:1050D000019B9F42ABD00226B9E702262D2BA8D117
:1050E0002C3BAF190793F3E7049A002A04D020223F
:1050F00013436A2B13D13D00079B002B02D0029B68
:105100005B420293029814F0BDFF011C234817F084
:10511000E3FB039914F08AFC049F061C7FE700233D
:105120000493E9E70135019B9D4205D2287800F000
:10513000A9FE0028F6D17AE7019B9D4200D076E7D0
:10514000089B002B01D1002F1AD0154915481DF0DE
:1051500064FF1099FFF772FE002305930023039369
:10516000002325000493CCE7059B002B00D15EE7CC
:105170002500002656E7019BBB4200D157E769E7AF
:10518000032302209E43084B3043C0180BB0F0BDF0
:105190000000C07F0D140300CDCCCC3D00002041A9
:1051A000F0130300FCB1020000008080F0B508C9D4
:1051B0008DB00593244B06AC01380093019406236F
:1051C0000BF02CFAE068214E214FB04202D010F0D3
:1051D00021FD07001F4B20690393B04202D010F05D
:1051E00019FD03901C4B60690493B04202D010F08B
:1051F00011FD0490194D38002900FCF721FA29000F
:105200000398FCF71DFA29000498FCF719FA01200D
:105210000523049A0399059D527949790435404242
:10522000FB5652B2009049B2280013F045FA002311
:10523000A2686168280013F0C5F92800069913F0E8
:10524000F9F930000DB0F0BDD8940200988A020040
:10525000B8DD0200C8DD0200C0DD02008489020062
:10526000F0B50E6887B0736807000C00002B02D100
:10527000124806F0A5F9486804F046FB010002A8B0
:105280001FF0E9FB0025032F03D1A06804F03CFBCD
:1052900005000024039B0193A34208D9301D290077
:1052A00013F0F2FA049B185501930134F2E702A9B6
:1052B00003480DF03BFF07B0F0BDC0467214030079
:1052C0002CD5020070B505006B6886B00800002B75
:1052D00002D10B4806F074F9012203A904F0CEFCB8
:1052E000039E3400049AA31B01929A4205D92178A7
:1052F000281D13F0C9FA0134F4E7024806B070BD66
:1053000072140300988A0200F0B505006B6889B03A
:1053100008001400002B02D10E4806F051F90122BA
:1053200002A904F0ABFC20000024022205A9029F80
:1053300004F0A4FC059E039B0193A34206D9395DAA
:10534000281D13F0A1FA30550134F4E7024809B0E2
:10535000F0BDC04672140300988A020000487047EE
:10536000BC950200F0B50F00496885B00500160035
:10537000002901D0002A05D1390028001BF007FDC3
:1053800005B0F0BD0F321309C91800931BF070FC73
:105390000F22A868B9687C68324000D11032009BA7
:1053A0001E19234BF3185B00C018214B0290E31821
:1053B0005B00CB18019010209C4621000023801A2E
:1053C000002921D1C3401A48029A84466400141B64
:1053D0002380009B5B00E41A009B023463445A0064
:1053E000200022F0D1FC002E04D07300023BE35ACF
:1053F000002B1BD001216E603B78DB07DA0F2B7886
:105400008B4313432B70BBE7624612880139134369
:105410001A00C2400393019B1A80019A039B023A2F
:105420000192022252421B049444C9E7013EDAE78A
:10543000FFFFFF7FF0B54B681500526889B006008A
:105440000C00934201D22C000D00012122786368E8
:105450000A4201D12A781140C91830001BF008FC1B
:10546000B36822780193A3681700029363682978D0
:105470009C46AB684F400393012318001F408B43A9
:1054800006936346904302006046591E019B0493B5
:105490006B681B1A07934B1C18D163465900019B7C
:1054A0005918002F02D001230B80023101981BF004
:1054B00062FB0121706022782B7853403278DB0741
:1054C0008A43DB0F1343337009B0F0BD029B1348CE
:1054D0001B881B189B180593079B5B188B421AD8D7
:1054E000039B039A1B8802321B180392069A013908
:1054F0009B18059A5A4092B21B0CD7190693049A2E
:10550000059B17801A0C049B3F0C02330493029BEB
:1055100002330293BFE7014BE8E7C046FFFF0000FC
:10552000F0B5060095B0069353680D00591C04921F
:1055300000931BF09DFB049B00215B68B0685A1C24
:105540005200009322F020FC00237360049B28008B
:105550005B68591C00931BF08BFB049928001BF01F
:1055600016FCAB686F680193069B9B680393069BD0
:105570005B680293B3680793029BBB422DD82ED37E
:10558000039A390001981BF0B6FB002823D10123B0
:10559000079A686013807360049B1A78069B1B78D7
:1055A0005A4001231A4214D03278134333706B6887
:1055B000002B0ED0012111A849421BF007FC11AAB3
:1055C000310030001BF009FE069A290028001BF06C
:1055D00004FE15B0F0BD002801DA0023DBE7824AA3
:1055E000029B9B185B009C460022039B634405932F
:1055F0001B8800921AB2002A63DA0022019B7C0009
:105600001A537B1C102709936B60019BA01C009907
:105610001B180893791A019B0A9108998B4256D35B
:10562000059B009A1B8893400893029B012B0AD983
:105630001022039B00996344023B1B88521AD340FB
:10564000089A1A430892019B029A1C19099B9B1AFB
:10565000654A73609B18079A5B00D3180A936346E8
:1056600002330E936B680B930B9A029B934239D3D0
:1056700013005D4A102194460024019A63445B00A4
:10568000D318009A891A019A9A4200D89FE0736849
:10569000002B07D0544A07999A185200525A002AF0
:1056A00000D19EE06B68002B00D175E74E4A01994E
:1056B0009A185200525A002A00D06DE7013B6B60E5
:1056C000F0E7009A5B0001329BB292B291E7198831
:1056D000009F0800B84002431A800A9A0233D14062
:1056E0008AB29AE7A31E20880D931B8800041843F2
:1056F000089913F041FB0E9B0022E31A0C9319004A
:10570000039B05909C4609928C4212D823889A42AA
:1057100034D3D31A5A42190C9BB222805A1E934199
:10572000CA18002A2CD003990C9B8C4600210F002C
:1057300042E0099B009F180C63461B88BB4018433E
:105740006B4609909F8C059B5F430B889F4203D259
:10575000D81B0F9090420CD8D31AFF187B420B80B5
:10576000BBB23A0C5F1EBB41D218022302319C44EB
:10577000CAE70F9B9A1A0A800022F6E79A1A22803B
:105780006A460A9B928A023B5A800A930B9B0D9CA5
:10579000013B6B6066E7380C09906046009F00880B
:1057A000B840099F074318884118B8B24118022031
:1057B00019808444090C02339C42ECD82388591880
:1057C000059B2180013B090C521A0593A9E71A8811
:1057D000009F100038418A402043188094B2023B59
:1057E00051E7013B736052E7FFFFFF7F436870B5ED
:1057F0005A00002384680A4DA218944206D3027806
:10580000D20700D55B4201200B6070BD023AAB426B
:1058100003D816881B043343EFE70020F5E7C046A2
:10582000FF7F00000023FA21094A89001360094A1A
:105830001370094A1360094A1160094A1370094A32
:10584000111D0832D3670122CB67074B1A707047CE
:10585000C8020020012E0020C402002018000020F1
:10586000022E0020742E0020032E002010B5084BBD
:10587000084A1978002907D1916C002902D0FFF756
:10588000D1FF10BD30BFF4E700221A70F9E7C0461F
:10589000032E0020742E0020837F0248002B00D1AD
:1058A00001487047A8C90200A0C90200A02010B595
:1058B0000F49C0054B7F5A1C002B09D14C8C0D4B56
:1058C000A3430D4C03510D4B4A775200D05A0DE0C3
:1058D00010335B00CB185C88A123DB00C450092A7D
:1058E000F1D1012004F03EFF0120404210BDC0462E
:1058F0001C000020F01F00000C05000008E702005B
:105900000023A022E02110B583770C4BD2050902B9
:10591000D1500B48FBF77EFE0A48FBF77BFE0A4896
:10592000FBF778FE0948FBF775FE0948FBF772FEA6
:105930000848FBF76FFE084810BDC0460C05000084
:10594000F8DD020000DE020010DE020018DE0200B8
:1059500028DE0200A0DD0200988A020073B5041E52
:1059600009D11A4D2B78002B2CD0194919481BF05E
:1059700076FF2C7073BD184D2B1DDE6F03F0DCFE1F
:10598000164B2100984214D0154B2340062B05D00E
:10599000A30712D1134B22689A420ED101A920000D
:1059A0000EF052F8019B012B0CD100781BF081F80E
:1059B000010030001BF053FFDCE70B490B481DF0E2
:1059C0002CFBA864FFF72EFFD4E7C046022E002070
:1059D000509302001C000020742E0020B09302009F
:1059E000070080FF64C002002C15030084B1020090
:1059F000F7B5A123A021214AC905DB00CA50012324
:105A0000C27F0D3293401E4A8B50C37F01920133F7
:105A1000DBB2032B2FD0C377020003000021223317
:105A20003632198002339342FBD10424C17F154FD3
:105A30004D000522EB5D7E195343134A7678D31847
:105A40009B190126A640B44662461B7901345B00CF
:105A5000C3185E8C063516435E840D2CE9D10122F5
:105A60000D318A40A023A121DB05C9005A50828E46
:105A700001995A50F7BD0023CDE7C046F01F000042
:105A80000C050000F61403001C00002070B5324D18
:105A90008CB0AB7F002B1FD02800FFF7A9FF2F4A47
:105AA0002F4913680968063313608B4207D300241B
:105AB0002C4B14601B78012B10D0022B46D00023F6
:105AC0002A8C6B77FF33FF331A4205D0E122264937
:105AD000D200012004F012FE0CB070BD234E331D25
